:020000040800F2
:1000000060060020B1010008B9010008BB0100082A
:10001000BD010008BF010008C10100080000000088
:10002000000000000000000000000000C301000804
:10003000C501000800000000C7010008C901000850
:10004000CB010008CB010008CB010008CB01000860
:10005000CB010008CB010008CB010008CB01000850
:10006000CB010008CB010008CB010008CB01000840
:10007000CB010008CB010008CB010008CB01000830
:10008000CB010008CB010008CB010008CB01000820
:10009000CB010008CB010008CB010008CB01000810
:1000A000CB010008CB010008CB010008CB01000800
:1000B000CB010008CB010008CB010008CB010008F0
:1000C000CB010008CB010008CB010008CB010008E0
:1000D000CB010008CB010008CB010008CB010008D0
:1000E000CB010008CB010008CB010008CB010008C0
:1000F000CB010008CB010008CB010008CB010008B0
:10010000CB010008CB010008CB010008CB0100089F
:10011000CB010008CB010008CB010008CB0100088F
:10012000CB010008CB010008CB010008CB0100087F
:1001300000F002F800F02CF80AA090E8000C8244CD
:100140008344AAF10107DA4501D100F021F8AFF2AA
:10015000090EBAE80F0013F0010F18BFFB1A43F0A5
:100160000103184724020000340200000023002489
:1001700000250026103A28BF78C1FBD8520728BFB7
:1001800030C148BF0B6070471FB51FBD10B510BD13
:1001900000F031F81146FFF7F7FF00F08BF800F0A0
:1001A0004FF803B4FFF7F2FF03BC00F057F800006C
:1001B0000948804709480047FEE7FEE7FEE7FEE7FB
:1001C000FEE7FEE7FEE7FEE7FEE7FEE70448054937
:1001D000054A064B704700006D0200083101000817
:1001E0006000002060060020600200206002002005
:1001F000704770477047754600F02CF8AE46050012
:100200006946534620F00700854618B020B5FFF731
:10021000DDFFBDE820404FF000064FF000074FF033
:1002200000084FF0000BAC46ACE8C009ACE8C009D0
:10023000ACE8C009ACE8C00921F007018D46704761
:1002400010B50446AFF300802046BDE81040FFF72C
:10025000A8BF000000487047000000200149182096
:10026000ABBEFEE7260002007047000070470000AA
:1002700082B00020019000900190FFE701990020DA
:10028000B0EB512F13D1FFE700200090FFE700995A
:100290000020B0EB512F05D1FFE7FFE700980130B8
:1002A0000090F4E7FFE7019801300190E6E702B023
:1002B0007047000080B584B00020039041F218011F
:1002C000C4F20201086840F00800086040F60041EE
:1002D000C4F201010291086820F00F00086008686C
:1002E00040F001000860086820F0F000086008682D
:1002F00040F010000860086820F47000086008688A
:1003000040F48010086040F60C41C4F20101086816
:1003100040F001000860086840F0020008600868CA
:1003200040F020000860FFE740F60C41C4F20101F4
:100330000191086820F001000860FFF799FF01991A
:10034000086840F001000860FFF792FF0199086813
:1003500020F002000860FFF78BFF0199086840F069
:1003600002000860FFF784FF0199086820F0200070
:100370000860FFF77DFF0199086840F020000860E1
:10038000FFF776FFD0E70000980300080000002088
:08039000600600006C0100088A
:0400000508000131BD
:00000001FF
